{
  "contractName": "DiaryApp",
  "abi": [
    {
      "constant": true,
      "inputs": [
        {
          "name": "",
          "type": "uint256"
        }
      ],
      "name": "users",
      "outputs": [
        {
          "name": "",
          "type": "address"
        }
      ],
      "payable": false,
      "stateMutability": "view",
      "type": "function"
    },
    {
      "constant": true,
      "inputs": [],
      "name": "bonus_eth",
      "outputs": [
        {
          "name": "",
          "type": "uint256"
        }
      ],
      "payable": false,
      "stateMutability": "view",
      "type": "function"
    },
    {
      "constant": true,
      "inputs": [],
      "name": "numItems",
      "outputs": [
        {
          "name": "",
          "type": "uint256"
        }
      ],
      "payable": false,
      "stateMutability": "view",
      "type": "function"
    },
    {
      "constant": true,
      "inputs": [
        {
          "name": "",
          "type": "uint256"
        }
      ],
      "name": "get_eth_accounts",
      "outputs": [
        {
          "name": "entryAddr",
          "type": "address"
        },
        {
          "name": "name",
          "type": "string"
        },
        {
          "name": "email",
          "type": "string"
        }
      ],
      "payable": false,
      "stateMutability": "view",
      "type": "function"
    },
    {
      "constant": true,
      "inputs": [],
      "name": "stopped",
      "outputs": [
        {
          "name": "",
          "type": "bool"
        }
      ],
      "payable": false,
      "stateMutability": "view",
      "type": "function"
    },
    {
      "constant": true,
      "inputs": [
        {
          "name": "",
          "type": "uint256"
        }
      ],
      "name": "images",
      "outputs": [
        {
          "name": "googleDocID",
          "type": "string"
        }
      ],
      "payable": false,
      "stateMutability": "view",
      "type": "function"
    },
    {
      "constant": true,
      "inputs": [
        {
          "name": "",
          "type": "uint256"
        }
      ],
      "name": "items",
      "outputs": [
        {
          "name": "submitAddr",
          "type": "address"
        },
        {
          "name": "title",
          "type": "string"
        },
        {
          "name": "text",
          "type": "string"
        },
        {
          "name": "time",
          "type": "uint256"
        },
        {
          "name": "favorite",
          "type": "bool"
        },
        {
          "name": "stop",
          "type": "bool"
        }
      ],
      "payable": false,
      "stateMutability": "view",
      "type": "function"
    },
    {
      "constant": true,
      "inputs": [],
      "name": "total_entry",
      "outputs": [
        {
          "name": "",
          "type": "uint256"
        }
      ],
      "payable": false,
      "stateMutability": "view",
      "type": "function"
    },
    {
      "inputs": [],
      "payable": false,
      "stateMutability": "nonpayable",
      "type": "constructor"
    },
    {
      "constant": false,
      "inputs": [
        {
          "name": "_name",
          "type": "string"
        },
        {
          "name": "_email",
          "type": "string"
        }
      ],
      "name": "registerAccount",
      "outputs": [
        {
          "name": "",
          "type": "bool"
        }
      ],
      "payable": false,
      "stateMutability": "nonpayable",
      "type": "function"
    },
    {
      "constant": true,
      "inputs": [
        {
          "name": "user",
          "type": "address"
        }
      ],
      "name": "isUserExist",
      "outputs": [
        {
          "name": "",
          "type": "bool"
        }
      ],
      "payable": false,
      "stateMutability": "view",
      "type": "function"
    },
    {
      "constant": true,
      "inputs": [
        {
          "name": "user",
          "type": "address"
        }
      ],
      "name": "viewAccount",
      "outputs": [
        {
          "name": "",
          "type": "string"
        },
        {
          "name": "",
          "type": "string"
        },
        {
          "name": "",
          "type": "uint256"
        }
      ],
      "payable": false,
      "stateMutability": "view",
      "type": "function"
    },
    {
      "constant": false,
      "inputs": [
        {
          "name": "_title",
          "type": "string"
        },
        {
          "name": "_text",
          "type": "string"
        },
        {
          "name": "_googleDocID",
          "type": "string"
        }
      ],
      "name": "submit",
      "outputs": [],
      "payable": true,
      "stateMutability": "payable",
      "type": "function"
    },
    {
      "constant": false,
      "inputs": [
        {
          "name": "_num",
          "type": "uint256"
        }
      ],
      "name": "stop_item",
      "outputs": [],
      "payable": false,
      "stateMutability": "nonpayable",
      "type": "function"
    },
    {
      "constant": false,
      "inputs": [
        {
          "name": "_num",
          "type": "uint256"
        }
      ],
      "name": "favo_true",
      "outputs": [],
      "payable": false,
      "stateMutability": "nonpayable",
      "type": "function"
    },
    {
      "constant": false,
      "inputs": [
        {
          "name": "_num",
          "type": "uint256"
        }
      ],
      "name": "favo_false",
      "outputs": [],
      "payable": false,
      "stateMutability": "nonpayable",
      "type": "function"
    },
    {
      "constant": false,
      "inputs": [],
      "name": "entry_get_eth",
      "outputs": [],
      "payable": false,
      "stateMutability": "nonpayable",
      "type": "function"
    },
    {
      "constant": true,
      "inputs": [
        {
          "name": "user",
          "type": "address"
        }
      ],
      "name": "view_eth_acc",
      "outputs": [
        {
          "name": "",
          "type": "uint256"
        },
        {
          "name": "",
          "type": "bool"
        }
      ],
      "payable": false,
      "stateMutability": "view",
      "type": "function"
    },
    {
      "constant": false,
      "inputs": [],
      "name": "get_eth",
      "outputs": [],
      "payable": true,
      "stateMutability": "payable",
      "type": "function"
    },
    {
      "constant": false,
      "inputs": [
        {
          "name": "_stopped",
          "type": "bool"
        }
      ],
      "name": "toggleCircuit",
      "outputs": [],
      "payable": false,
      "stateMutability": "nonpayable",
      "type": "function"
    }
  ],
  "bytecode": "0x608060405234801561001057600080fd5b50336000806101000a81548173ffffffffffffffffffffffffffffffffffffffff021916908373ffffffffffffffffffffffffffffffffffffffff16021790555060008060146101000a81548160ff02191690831515021790555060006001819055506000600281905550600060038190555061220a806100926000396000f3fe608060405260043610610131576000357c01000000000000000000000000000000000000000000000000000000009004806375f12b21116100bd578063d83cc37311610081578063d83cc37314610a2c578063d87ad17314610a67578063db6b59d714610a7e578063dd6c2c5914610aa9578063ddc7b6a714610ae657610131565b806375f12b21146107635780638485648214610792578063bfb231d214610846578063c385ef2d146109b6578063ca39b3f2146109f157610131565b806346fb5ac61161010457806346fb5ac61461024f5780635bfadae4146104385780636b55f4a51461046357806370f98031146105a057806372ca7bfa1461061057610131565b80630255fa1e1461013657806322d342121461019f578063365b98b2146101a9578063439aed5b14610224575b600080fd5b34801561014257600080fd5b506101856004803603602081101561015957600080fd5b81019080803573ffffffffffffffffffffffffffffffffffffffff169060200190929190505050610c5d565b604051808215151515815260200191505060405180910390f35b6101a7610d01565b005b3480156101b557600080fd5b506101e2600480360360208110156101cc57600080fd5b8101908080359060200190929190505050610e49565b604051808273ffffffffffffffffffffffffffffffffffffffff1673ffffffffffffffffffffffffffffffffffffffff16815260200191505060405180910390f35b34801561023057600080fd5b50610239610e87565b6040518082815260200191505060405180910390f35b6104366004803603606081101561026557600080fd5b810190808035906020019064010000000081111561028257600080fd5b82018360208201111561029457600080fd5b803590602001918460018302840111640100000000831117156102b657600080fd5b91908080601f016020809104026020016040519081016040528093929190818152602001838380828437600081840152601f19601f8201169050808301925050505050505091929192908035906020019064010000000081111561031957600080fd5b82018360208201111561032b57600080fd5b8035906020019184600183028401116401000000008311171561034d57600080fd5b91908080601f016020809104026020016040519081016040528093929190818152602001838380828437600081840152601f19601f820116905080830192505050505050509192919290803590602001906401000000008111156103b057600080fd5b8201836020820111156103c257600080fd5b803590602001918460018302840111640100000000831117156103e457600080fd5b91908080601f016020809104026020016040519081016040528093929190818152602001838380828437600081840152601f19601f820116905080830192505050505050509192919290505050610e8d565b005b34801561044457600080fd5b5061044d61107e565b6040518082815260200191505060405180910390f35b34801561046f57600080fd5b506104b26004803603602081101561048657600080fd5b81019080803573ffffffffffffffffffffffffffffffffffffffff169060200190929190505050611084565b604051808060200180602001848152602001838103835286818151815260200191508051906020019080838360005b838110156104fc5780820151818401526020810190506104e1565b50505050905090810190601f1680156105295780820380516001836020036101000a031916815260200191505b50838103825285818151815260200191508051906020019080838360005b83811015610562578082015181840152602081019050610547565b50505050905090810190601f16801561058f5780820380516001836020036101000a031916815260200191505b509550505050505060405180910390f35b3480156105ac57600080fd5b506105ef600480360360208110156105c357600080fd5b81019080803573ffffffffffffffffffffffffffffffffffffffff1690602001909291905050506112a1565b60405180838152602001821515151581526020019250505060405180910390f35b34801561061c57600080fd5b506106496004803603602081101561063357600080fd5b810190808035906020019092919050505061134c565b604051808473ffffffffffffffffffffffffffffffffffffffff1673ffffffffffffffffffffffffffffffffffffffff1681526020018060200180602001838103835285818151815260200191508051906020019080838360005b838110156106bf5780820151818401526020810190506106a4565b50505050905090810190601f1680156106ec5780820380516001836020036101000a031916815260200191505b50838103825284818151815260200191508051906020019080838360005b8381101561072557808201518184015260208101905061070a565b50505050905090810190601f1680156107525780820380516001836020036101000a031916815260200191505b509550505050505060405180910390f35b34801561076f57600080fd5b506107786114c6565b604051808215151515815260200191505060405180910390f35b34801561079e57600080fd5b506107cb600480360360208110156107b557600080fd5b81019080803590602001909291905050506114d9565b6040518080602001828103825283818151815260200191508051906020019080838360005b8381101561080b5780820151818401526020810190506107f0565b50505050905090810190601f1680156108385780820380516001836020036101000a031916815260200191505b509250505060405180910390f35b34801561085257600080fd5b5061087f6004803603602081101561086957600080fd5b810190808035906020019092919050505061158f565b604051808773ffffffffffffffffffffffffffffffffffffffff1673ffffffffffffffffffffffffffffffffffffffff16815260200180602001806020018681526020018515151515815260200184151515158152602001838103835288818151815260200191508051906020019080838360005b8381101561090f5780820151818401526020810190506108f4565b50505050905090810190601f16801561093c5780820380516001836020036101000a031916815260200191505b50838103825287818151815260200191508051906020019080838360005b8381101561097557808201518184015260208101905061095a565b50505050905090810190601f1680156109a25780820380516001836020036101000a031916815260200191505b509850505050505050505060405180910390f35b3480156109c257600080fd5b506109ef600480360360208110156109d957600080fd5b8101908080359060200190929190505050611735565b005b3480156109fd57600080fd5b50610a2a60048036036020811015610a1457600080fd5b81019080803590602001909291905050506117de565b005b348015610a3857600080fd5b50610a6560048036036020811015610a4f57600080fd5b810190808035906020019092919050505061197a565b005b348015610a7357600080fd5b50610a7c611a23565b005b348015610a8a57600080fd5b50610a93611d02565b6040518082815260200191505060405180910390f35b348015610ab557600080fd5b50610ae460048036036020811015610acc57600080fd5b81019080803515159060200190929190505050611d08565b005b348015610af257600080fd5b50610c4360048036036040811015610b0957600080fd5b8101908080359060200190640100000000811115610b2657600080fd5b820183602082011115610b3857600080fd5b80359060200191846001830284011164010000000083111715610b5a57600080fd5b91908080601f016020809104026020016040519081016040528093929190818152602001838380828437600081840152601f19601f82011690508083019250505050505050919291929080359060200190640100000000811115610bbd57600080fd5b820183602082011115610bcf57600080fd5b80359060200191846001830284011164010000000083111715610bf157600080fd5b91908080601f016020809104026020016040519081016040528093929190818152602001838380828437600081840152601f19601f820116905080830192505050505050509192919290505050611d80565b604051808215151515815260200191505060405180910390f35b600080600090505b600480549050811015610cf6578273ffffffffffffffffffffffffffffffffffffffff16600482815481101515610c9857fe5b9060005260206000200160009054906101000a900473ffffffffffffffffffffffffffffffffffffffff1673ffffffffffffffffffffffffffffffffffffffff161415610ce9576001915050610cfc565b8080600101915050610c65565b50600090505b919050565b6000809054906101000a900473ffffffffffffffffffffffffffffffffffffffff1673ffffffffffffffffffffffffffffffffffffffff163373ffffffffffffffffffffffffffffffffffffffff16141515610d5c57600080fd5b600060149054906101000a900460ff16151515610d7857600080fd5b674563918244f4000060035410151515610d9157600080fd5b6000600254111515610da257600080fd5b6000610dac611f0b565b90506008600082815260200190815260200160002060000160009054906101000a900473ffffffffffffffffffffffffffffffffffffffff1673ffffffffffffffffffffffffffffffffffffffff166108fc6003549081150290604051600060405180830381858888f19350505050158015610e2c573d6000803e3d6000fd5b5060006003819055506000600281905550610e45611f25565b5050565b600481815481101515610e5857fe5b906000526020600020016000915054906101000a900473ffffffffffffffffffffffffffffffffffffffff1681565b60035481565b600560003373ffffffffffffffffffffffffffffffffffffffff1673ffffffffffffffffffffffffffffffffffffffff16815260200190815260200160002060020160009054906101000a900460ff161515610ee857600080fd5b600060149054906101000a900460ff16151515610f0457600080fd5b60004290503360066000600154815260200190815260200160002060000160006101000a81548173ffffffffffffffffffffffffffffffffffffffff021916908373ffffffffffffffffffffffffffffffffffffffff160217905550836006600060015481526020019081526020016000206001019080519060200190610f8c9291906120b2565b50826006600060015481526020019081526020016000206002019080519060200190610fb99291906120b2565b5080600660006001548152602001908152602001600020600301819055508160076000600154815260200190815260200160002060000190805190602001906110039291906120b2565b5034600360008282540192505081905550600560003373ffffffffffffffffffffffffffffffffffffffff1673ffffffffffffffffffffffffffffffffffffffff1681526020019081526020016000206003016000815480929190600101919050555060016000815480929190600101919050555050505050565b60015481565b60608060006060600560008673ffffffffffffffffffffffffffffffffffffffff1673ffffffffffffffffffffffffffffffffffffffff1681526020019081526020016000206000018054600181600116156101000203166002900480601f0160208091040260200160405190810160405280929190818152602001828054600181600116156101000203166002900480156111615780601f1061113657610100808354040283529160200191611161565b820191906000526020600020905b81548152906001019060200180831161114457829003601f168201915b505050505090506060600560008773ffffffffffffffffffffffffffffffffffffffff1673ffffffffffffffffffffffffffffffffffffffff1681526020019081526020016000206001018054600181600116156101000203166002900480601f0160208091040260200160405190810160405280929190818152602001828054600181600116156101000203166002900480156112405780601f1061121557610100808354040283529160200191611240565b820191906000526020600020905b81548152906001019060200180831161122357829003601f168201915b505050505090506000600560008873ffffffffffffffffffffffffffffffffffffffff1673ffffffffffffffffffffffffffffffffffffffff1681526020019081526020016000206003015490508282829550955095505050509193909250565b6000806000600560008573ffffffffffffffffffffffffffffffffffffffff1673ffffffffffffffffffffffffffffffffffffffff1681526020019081526020016000206003015490506000600560008673ffffffffffffffffffffffffffffffffffffffff1673ffffffffffffffffffffffffffffffffffffffff16815260200190815260200160002060040160009054906101000a900460ff1690508181935093505050915091565b60086020528060005260406000206000915090508060000160009054906101000a900473ffffffffffffffffffffffffffffffffffffffff1690806001018054600181600116156101000203166002900480601f01602080910402602001604051908101604052809291908181526020018280546001816001161561010002031660029004801561141e5780601f106113f35761010080835404028352916020019161141e565b820191906000526020600020905b81548152906001019060200180831161140157829003601f168201915b505050505090806002018054600181600116156101000203166002900480601f0160208091040260200160405190810160405280929190818152602001828054600181600116156101000203166002900480156114bc5780601f10611491576101008083540402835291602001916114bc565b820191906000526020600020905b81548152906001019060200180831161149f57829003601f168201915b5050505050905083565b600060149054906101000a900460ff1681565b6007602052806000526040600020600091509050806000018054600181600116156101000203166002900480601f0160208091040260200160405190810160405280929190818152602001828054600181600116156101000203166002900480156115855780601f1061155a57610100808354040283529160200191611585565b820191906000526020600020905b81548152906001019060200180831161156857829003601f168201915b5050505050905081565b60066020528060005260406000206000915090508060000160009054906101000a900473ffffffffffffffffffffffffffffffffffffffff1690806001018054600181600116156101000203166002900480601f0160208091040260200160405190810160405280929190818152602001828054600181600116156101000203166002900480156116615780601f1061163657610100808354040283529160200191611661565b820191906000526020600020905b81548152906001019060200180831161164457829003601f168201915b505050505090806002018054600181600116156101000203166002900480601f0160208091040260200160405190810160405280929190818152602001828054600181600116156101000203166002900480156116ff5780601f106116d4576101008083540402835291602001916116ff565b820191906000526020600020905b8154815290600101906020018083116116e257829003601f168201915b5050505050908060030154908060040160009054906101000a900460ff16908060040160019054906101000a900460ff16905086565b600560003373ffffffffffffffffffffffffffffffffffffffff1673ffffffffffffffffffffffffffffffffffffffff16815260200190815260200160002060020160009054906101000a900460ff16151561179057600080fd5b600060149054906101000a900460ff161515156117ac57600080fd5b60016006600083815260200190815260200160002060040160006101000a81548160ff02191690831515021790555050565b600560003373ffffffffffffffffffffffffffffffffffffffff1673ffffffffffffffffffffffffffffffffffffffff16815260200190815260200160002060020160009054906101000a900460ff16151561183957600080fd5b600060149054906101000a900460ff1615151561185557600080fd5b3373ffffffffffffffffffffffffffffffffffffffff166006600083815260200190815260200160002060000160009054906101000a900473ffffffffffffffffffffffffffffffffffffffff1673ffffffffffffffffffffffffffffffffffffffff161415156118c557600080fd5b6006600082815260200190815260200160002060040160019054906101000a900460ff161515156118f557600080fd5b60016006600083815260200190815260200160002060040160016101000a81548160ff021916908315150217905550600560003373ffffffffffffffffffffffffffffffffffffffff1673ffffffffffffffffffffffffffffffffffffffff168152602001908152602001600020600301600081548092919060019003919050555050565b600560003373ffffffffffffffffffffffffffffffffffffffff1673ffffffffffffffffffffffffffffffffffffffff16815260200190815260200160002060020160009054906101000a900460ff1615156119d557600080fd5b600060149054906101000a900460ff161515156119f157600080fd5b60006006600083815260200190815260200160002060040160006101000a81548160ff02191690831515021790555050565b600560003373ffffffffffffffffffffffffffffffffffffffff1673ffffffffffffffffffffffffffffffffffffffff16815260200190815260200160002060020160009054906101000a900460ff161515611a7e57600080fd5b600060149054906101000a900460ff16151515611a9a57600080fd5b600560003373ffffffffffffffffffffffffffffffffffffffff1673ffffffffffffffffffffffffffffffffffffffff16815260200190815260200160002060040160009054906101000a900460ff16151515611af657600080fd5b6001600560003373ffffffffffffffffffffffffffffffffffffffff1673ffffffffffffffffffffffffffffffffffffffff1681526020019081526020016000206003015410151515611b4857600080fd5b3360086000600254815260200190815260200160002060000160006101000a81548173ffffffffffffffffffffffffffffffffffffffff021916908373ffffffffffffffffffffffffffffffffffffffff160217905550600560003373ffffffffffffffffffffffffffffffffffffffff1673ffffffffffffffffffffffffffffffffffffffff1681526020019081526020016000206000016008600060025481526020019081526020016000206001019080546001816001161561010002031660029004611c18929190612132565b50600560003373ffffffffffffffffffffffffffffffffffffffff1673ffffffffffffffffffffffffffffffffffffffff1681526020019081526020016000206001016008600060025481526020019081526020016000206002019080546001816001161561010002031660029004611c92929190612132565b506001600560003373ffffffffffffffffffffffffffffffffffffffff1673ffffffffffffffffffffffffffffffffffffffff16815260200190815260200160002060040160006101000a81548160ff021916908315150217905550600260008154809291906001019190505550565b60025481565b6000809054906101000a900473ffffffffffffffffffffffffffffffffffffffff1673ffffffffffffffffffffffffffffffffffffffff163373ffffffffffffffffffffffffffffffffffffffff16141515611d6357600080fd5b80600060146101000a81548160ff02191690831515021790555050565b6000611d8b33610c5d565b1515611e53576001600560003373ffffffffffffffffffffffffffffffffffffffff1673ffffffffffffffffffffffffffffffffffffffff16815260200190815260200160002060020160006101000a81548160ff02191690831515021790555060043390806001815401808255809150509060018203906000526020600020016000909192909190916101000a81548173ffffffffffffffffffffffffffffffffffffffff021916908373ffffffffffffffffffffffffffffffffffffffff160217905550505b82600560003373ffffffffffffffffffffffffffffffffffffffff1673ffffffffffffffffffffffffffffffffffffffff1681526020019081526020016000206000019080519060200190611ea99291906120b2565b5081600560003373ffffffffffffffffffffffffffffffffffffffff1673ffffffffffffffffffffffffffffffffffffffff1681526020019081526020016000206001019080519060200190611f009291906120b2565b506001905092915050565b60008060025442811515611f1b57fe5b0690508091505090565b60008060009054906101000a900473ffffffffffffffffffffffffffffffffffffffff1673ffffffffffffffffffffffffffffffffffffffff163373ffffffffffffffffffffffffffffffffffffffff16141515611f8257600080fd5b600060149054906101000a900460ff16151515611f9e57600080fd5b60008090505b6004805490508110156120ae576000600482815481101515611fc257fe5b9060005260206000200160009054906101000a900473ffffffffffffffffffffffffffffffffffffffff169050600560008273ffffffffffffffffffffffffffffffffffffffff1673ffffffffffffffffffffffffffffffffffffffff16815260200190815260200160002060040160009054906101000a900460ff16156120a0576000600560008373ffffffffffffffffffffffffffffffffffffffff1673ffffffffffffffffffffffffffffffffffffffff16815260200190815260200160002060040160006101000a81548160ff0219169083151502179055505b508080600101915050611fa4565b5090565b828054600181600116156101000203166002900490600052602060002090601f016020900481019282601f106120f357805160ff1916838001178555612121565b82800160010185558215612121579182015b82811115612120578251825591602001919060010190612105565b5b50905061212e91906121b9565b5090565b828054600181600116156101000203166002900490600052602060002090601f016020900481019282601f1061216b57805485556121a8565b828001600101855582156121a857600052602060002091601f016020900482015b828111156121a757825482559160010191906001019061218c565b5b5090506121b591906121b9565b5090565b6121db91905b808211156121d75760008160009055506001016121bf565b5090565b9056fea165627a7a723058200a1b4c991fe2c57eb5eb217f81294a48c60c65798f5cc8a7c42fed1c8308dcb50029",
  "source": "pragma solidity ^0.5.0;\n\ncontract DiaryApp {\n    address owner; // \n    bool public stopped; // true\n    uint256 public numItems; // \n    uint256 public total_entry; // eth\n    uint256 public bonus_eth; // ether\n\n    // \n    constructor() public {\n        owner = msg.sender; // \n        stopped = false;\n        numItems = 0;\n        total_entry = 0;\n        bonus_eth = 0;\n    }\n\n    // \n    modifier onlyOwner {\n        require(msg.sender == owner);\n        _;\n    }\n\n    // Eth\n    modifier onlyUser {\n        require(accounts[msg.sender].resistered);\n        _;\n    }\n\n    // ===========================\n    // \n    // ===========================\n\n    // \n    struct account {\n        string name; //\n        string email; //Email\n        bool resistered; //:false, :true\n        uint256 numWrite; //\n        bool entryed; // false, true\n    }\n\n    address[] public users; // \n\n    mapping(address => account) accounts;\n\n    // \n    function registerAccount(string memory _name, string memory _email)\n        public\n        returns (bool)\n    {\n        //\n        if (!isUserExist(msg.sender)) {\n            accounts[msg.sender].resistered = true;\n            users.push(msg.sender);\n        }\n        accounts[msg.sender].name = _name;\n        accounts[msg.sender].email = _email;\n        return true;\n    }\n\n    // \n    function isUserExist(address user) public view returns (bool) {\n        for (uint256 i = 0; i < users.length; i++) {\n            if (users[i] == user) {\n                return true;\n            }\n        }\n        return false;\n    }\n\n    // \n    function viewAccount(address user)\n        public\n        view\n        returns (\n            string memory,\n            string memory,\n            uint256\n        )\n    {\n        string memory _name = accounts[user].name;\n        string memory _email = accounts[user].email;\n        uint256 _numWrite = accounts[user].numWrite;\n\n        return (_name, _email, _numWrite);\n    }\n\n    // \n    struct item {\n        address payable submitAddr; // Eth\n        string title; // \n        string text; // \n        uint256 time; //\n        bool favorite; // \n        bool stop; // false, true\n    }\n    mapping(uint256 => item) public items;\n\n    // \n    // solidity12.\n    struct image {\n        string googleDocID; // googleid\n    }\n    mapping(uint256 => image) public images;\n\n    // \n    function submit(\n        string memory _title,\n        string memory _text,\n        string memory _googleDocID\n    ) public payable onlyUser isStopped {\n        uint256 _time = block.timestamp;\n\n        items[numItems].submitAddr = msg.sender; // Eth\n        items[numItems].title = _title; // \n        items[numItems].text = _text; // \n        items[numItems].time = _time; // \n        images[numItems].googleDocID = _googleDocID; // googleid\n        bonus_eth += msg.value;\n        accounts[msg.sender].numWrite++; // \n        numItems++; // \n    }\n\n    // \n    function stop_item(uint256 _num) public onlyUser isStopped {\n        require(items[_num].submitAddr == msg.sender); // \n        require(!items[_num].stop); // \n\n        items[_num].stop = true; // \n        accounts[msg.sender].numWrite--; // 1\n    }\n\n    // \n    function favo_true(uint256 _num) public onlyUser isStopped {\n        items[_num].favorite = true;\n    }\n\n    // \n    function favo_false(uint256 _num) public onlyUser isStopped {\n        items[_num].favorite = false;\n    }\n\n    // ================\n    // Eth\n    // ================\n\n    // eth\n    struct get_eth_account {\n        address payable entryAddr; // Eth\n        string name; //\n        string email; //Email\n    }\n\n    mapping(uint256 => get_eth_account) public get_eth_accounts;\n\n    // eth_get\n    function entry_get_eth() public onlyUser isStopped {\n        // \n        require(!accounts[msg.sender].entryed);\n        require(accounts[msg.sender].numWrite >= 1); // 1\n\n        get_eth_accounts[total_entry].entryAddr = msg.sender; //\n        get_eth_accounts[total_entry].name = accounts[msg.sender].name; //\n        get_eth_accounts[total_entry].email = accounts[msg.sender].email; //\n        accounts[msg.sender].entryed = true;\n        total_entry++;\n    }\n\n    // \n    function view_eth_acc(address user) public view returns (uint256, bool) {\n        uint256 _entry_condition1 = accounts[user].numWrite;\n        bool _entry_condition2 = accounts[user].entryed;\n\n        return (_entry_condition1, _entry_condition2);\n    }\n\n    // \n    function random() internal view returns (uint256) {\n        uint256 randnum = block.timestamp % total_entry;\n\n        return uint256(randnum);\n    }\n\n    // eth\n    function get_eth() public payable onlyOwner isStopped {\n        require(bonus_eth >= 5 ether);\n        require(total_entry > 0);\n\n        uint256 idx = random();\n        get_eth_accounts[idx].entryAddr.transfer(bonus_eth);\n        bonus_eth = 0;\n        total_entry = 0;\n        entry_false();\n    }\n\n    // false\n    function entry_false() internal onlyOwner isStopped returns (uint256) {\n        for (uint256 i = 0; i < users.length; i++) {\n            address index = users[i];\n            if (accounts[index].entryed) {\n                accounts[index].entryed = false;\n            }\n        }\n    }\n\n    // ================\n    // \n    // ================\n\n    // Circuit Breaker\n    modifier isStopped {\n        require(!stopped);\n        _;\n    }\n\n    // Circuit Breaker\n    function toggleCircuit(bool _stopped) public onlyOwner {\n        stopped = _stopped;\n    }\n\n    // \n    // \n    // function kill() public onlyOwner {\n    //     selfdestruct(owner);\n    // }\n}\n",
  "sourcePath": "/Users/sho11hei12/DiaryApp/dapps-deploy/contracts/Diary.sol",
  "compiler": {
    "name": "solc",
    "version": "0.5.2+commit.1df8f40c.Emscripten.clang"
  },
  "schemaVersion": "3.2.3",
  "updatedAt": "2020-12-08T07:30:25.245Z",
  "networkType": "ethereum",
  "devdoc": {
    "methods": {}
  },
  "userdoc": {
    "methods": {}
  }
}