{
  "contractName": "DiaryApp",
  "abi": [
    {
      "constant": true,
      "inputs": [
        {
          "name": "",
          "type": "uint256"
        }
      ],
      "name": "users",
      "outputs": [
        {
          "name": "",
          "type": "address"
        }
      ],
      "payable": false,
      "stateMutability": "view",
      "type": "function"
    },
    {
      "constant": true,
      "inputs": [],
      "name": "bonus_eth",
      "outputs": [
        {
          "name": "",
          "type": "uint256"
        }
      ],
      "payable": false,
      "stateMutability": "view",
      "type": "function"
    },
    {
      "constant": true,
      "inputs": [],
      "name": "numItems",
      "outputs": [
        {
          "name": "",
          "type": "uint256"
        }
      ],
      "payable": false,
      "stateMutability": "view",
      "type": "function"
    },
    {
      "constant": true,
      "inputs": [
        {
          "name": "",
          "type": "uint256"
        }
      ],
      "name": "get_eth_accounts",
      "outputs": [
        {
          "name": "entryAddr",
          "type": "address"
        },
        {
          "name": "name",
          "type": "string"
        },
        {
          "name": "email",
          "type": "string"
        }
      ],
      "payable": false,
      "stateMutability": "view",
      "type": "function"
    },
    {
      "constant": true,
      "inputs": [],
      "name": "stopped",
      "outputs": [
        {
          "name": "",
          "type": "bool"
        }
      ],
      "payable": false,
      "stateMutability": "view",
      "type": "function"
    },
    {
      "constant": true,
      "inputs": [
        {
          "name": "",
          "type": "uint256"
        }
      ],
      "name": "images",
      "outputs": [
        {
          "name": "googleDocID",
          "type": "string"
        }
      ],
      "payable": false,
      "stateMutability": "view",
      "type": "function"
    },
    {
      "constant": true,
      "inputs": [
        {
          "name": "",
          "type": "uint256"
        }
      ],
      "name": "items",
      "outputs": [
        {
          "name": "sellerAddr",
          "type": "address"
        },
        {
          "name": "title",
          "type": "string"
        },
        {
          "name": "text",
          "type": "string"
        },
        {
          "name": "time",
          "type": "uint256"
        },
        {
          "name": "stopSell",
          "type": "bool"
        }
      ],
      "payable": false,
      "stateMutability": "view",
      "type": "function"
    },
    {
      "constant": true,
      "inputs": [],
      "name": "total_entry",
      "outputs": [
        {
          "name": "",
          "type": "uint256"
        }
      ],
      "payable": false,
      "stateMutability": "view",
      "type": "function"
    },
    {
      "inputs": [],
      "payable": false,
      "stateMutability": "nonpayable",
      "type": "constructor"
    },
    {
      "constant": false,
      "inputs": [
        {
          "name": "_name",
          "type": "string"
        },
        {
          "name": "_email",
          "type": "string"
        }
      ],
      "name": "registerAccount",
      "outputs": [
        {
          "name": "",
          "type": "bool"
        }
      ],
      "payable": false,
      "stateMutability": "nonpayable",
      "type": "function"
    },
    {
      "constant": true,
      "inputs": [
        {
          "name": "user",
          "type": "address"
        }
      ],
      "name": "isUserExist",
      "outputs": [
        {
          "name": "",
          "type": "bool"
        }
      ],
      "payable": false,
      "stateMutability": "view",
      "type": "function"
    },
    {
      "constant": true,
      "inputs": [
        {
          "name": "user",
          "type": "address"
        }
      ],
      "name": "viewAccount",
      "outputs": [
        {
          "name": "",
          "type": "string"
        },
        {
          "name": "",
          "type": "string"
        },
        {
          "name": "",
          "type": "uint256"
        }
      ],
      "payable": false,
      "stateMutability": "view",
      "type": "function"
    },
    {
      "constant": false,
      "inputs": [
        {
          "name": "_title",
          "type": "string"
        },
        {
          "name": "_text",
          "type": "string"
        },
        {
          "name": "_googleDocID",
          "type": "string"
        }
      ],
      "name": "submit",
      "outputs": [],
      "payable": true,
      "stateMutability": "payable",
      "type": "function"
    },
    {
      "constant": false,
      "inputs": [],
      "name": "entry_get_eth",
      "outputs": [],
      "payable": false,
      "stateMutability": "nonpayable",
      "type": "function"
    },
    {
      "constant": true,
      "inputs": [
        {
          "name": "user",
          "type": "address"
        }
      ],
      "name": "view_eth_acc",
      "outputs": [
        {
          "name": "",
          "type": "uint256"
        },
        {
          "name": "",
          "type": "bool"
        }
      ],
      "payable": false,
      "stateMutability": "view",
      "type": "function"
    },
    {
      "constant": false,
      "inputs": [],
      "name": "get_eth",
      "outputs": [],
      "payable": true,
      "stateMutability": "payable",
      "type": "function"
    },
    {
      "constant": false,
      "inputs": [
        {
          "name": "_stopped",
          "type": "bool"
        }
      ],
      "name": "toggleCircuit",
      "outputs": [],
      "payable": false,
      "stateMutability": "nonpayable",
      "type": "function"
    }
  ],
  "bytecode": "0x608060405234801561001057600080fd5b50336000806101000a81548173ffffffffffffffffffffffffffffffffffffffff021916908373ffffffffffffffffffffffffffffffffffffffff16021790555060008060146101000a81548160ff021916908315150217905550600060018190555060006002819055506000600381905550611e1b806100926000396000f3fe608060405260043610610110576000357c01000000000000000000000000000000000000000000000000000000009004806372ca7bfa116100a7578063d87ad17311610076578063d87ad1731461098a578063db6b59d7146109a1578063dd6c2c59146109cc578063ddc7b6a714610a0957610110565b806372ca7bfa146105ef57806375f12b21146107425780638485648214610771578063bfb231d21461082557610110565b806346fb5ac6116100e357806346fb5ac61461022e5780635bfadae4146104175780636b55f4a51461044257806370f980311461057f57610110565b80630255fa1e1461011557806322d342121461017e578063365b98b214610188578063439aed5b14610203575b600080fd5b34801561012157600080fd5b506101646004803603602081101561013857600080fd5b81019080803573ffffffffffffffffffffffffffffffffffffffff169060200190929190505050610b80565b604051808215151515815260200191505060405180910390f35b610186610c24565b005b34801561019457600080fd5b506101c1600480360360208110156101ab57600080fd5b8101908080359060200190929190505050610d5b565b604051808273ffffffffffffffffffffffffffffffffffffffff1673ffffffffffffffffffffffffffffffffffffffff16815260200191505060405180910390f35b34801561020f57600080fd5b50610218610d99565b6040518082815260200191505060405180910390f35b6104156004803603606081101561024457600080fd5b810190808035906020019064010000000081111561026157600080fd5b82018360208201111561027357600080fd5b8035906020019184600183028401116401000000008311171561029557600080fd5b91908080601f016020809104026020016040519081016040528093929190818152602001838380828437600081840152601f19601f820116905080830192505050505050509192919290803590602001906401000000008111156102f857600080fd5b82018360208201111561030a57600080fd5b8035906020019184600183028401116401000000008311171561032c57600080fd5b91908080601f016020809104026020016040519081016040528093929190818152602001838380828437600081840152601f19601f8201169050808301925050505050505091929192908035906020019064010000000081111561038f57600080fd5b8201836020820111156103a157600080fd5b803590602001918460018302840111640100000000831117156103c357600080fd5b91908080601f016020809104026020016040519081016040528093929190818152602001838380828437600081840152601f19601f820116905080830192505050505050509192919290505050610d9f565b005b34801561042357600080fd5b5061042c610f90565b6040518082815260200191505060405180910390f35b34801561044e57600080fd5b506104916004803603602081101561046557600080fd5b81019080803573ffffffffffffffffffffffffffffffffffffffff169060200190929190505050610f96565b604051808060200180602001848152602001838103835286818151815260200191508051906020019080838360005b838110156104db5780820151818401526020810190506104c0565b50505050905090810190601f1680156105085780820380516001836020036101000a031916815260200191505b50838103825285818151815260200191508051906020019080838360005b83811015610541578082015181840152602081019050610526565b50505050905090810190601f16801561056e5780820380516001836020036101000a031916815260200191505b509550505050505060405180910390f35b34801561058b57600080fd5b506105ce600480360360208110156105a257600080fd5b81019080803573ffffffffffffffffffffffffffffffffffffffff1690602001909291905050506111b3565b60405180838152602001821515151581526020019250505060405180910390f35b3480156105fb57600080fd5b506106286004803603602081101561061257600080fd5b810190808035906020019092919050505061125e565b604051808473ffffffffffffffffffffffffffffffffffffffff1673ffffffffffffffffffffffffffffffffffffffff1681526020018060200180602001838103835285818151815260200191508051906020019080838360005b8381101561069e578082015181840152602081019050610683565b50505050905090810190601f1680156106cb5780820380516001836020036101000a031916815260200191505b50838103825284818151815260200191508051906020019080838360005b838110156107045780820151818401526020810190506106e9565b50505050905090810190601f1680156107315780820380516001836020036101000a031916815260200191505b509550505050505060405180910390f35b34801561074e57600080fd5b506107576113d8565b604051808215151515815260200191505060405180910390f35b34801561077d57600080fd5b506107aa6004803603602081101561079457600080fd5b81019080803590602001909291905050506113eb565b6040518080602001828103825283818151815260200191508051906020019080838360005b838110156107ea5780820151818401526020810190506107cf565b50505050905090810190601f1680156108175780820380516001836020036101000a031916815260200191505b509250505060405180910390f35b34801561083157600080fd5b5061085e6004803603602081101561084857600080fd5b81019080803590602001909291905050506114a1565b604051808673ffffffffffffffffffffffffffffffffffffffff1673ffffffffffffffffffffffffffffffffffffffff168152602001806020018060200185815260200184151515158152602001838103835287818151815260200191508051906020019080838360005b838110156108e45780820151818401526020810190506108c9565b50505050905090810190601f1680156109115780820380516001836020036101000a031916815260200191505b50838103825286818151815260200191508051906020019080838360005b8381101561094a57808201518184015260208101905061092f565b50505050905090810190601f1680156109775780820380516001836020036101000a031916815260200191505b5097505050505050505060405180910390f35b34801561099657600080fd5b5061099f611634565b005b3480156109ad57600080fd5b506109b6611913565b6040518082815260200191505060405180910390f35b3480156109d857600080fd5b50610a07600480360360208110156109ef57600080fd5b81019080803515159060200190929190505050611919565b005b348015610a1557600080fd5b50610b6660048036036040811015610a2c57600080fd5b8101908080359060200190640100000000811115610a4957600080fd5b820183602082011115610a5b57600080fd5b80359060200191846001830284011164010000000083111715610a7d57600080fd5b91908080601f016020809104026020016040519081016040528093929190818152602001838380828437600081840152601f19601f82011690508083019250505050505050919291929080359060200190640100000000811115610ae057600080fd5b820183602082011115610af257600080fd5b80359060200191846001830284011164010000000083111715610b1457600080fd5b91908080601f016020809104026020016040519081016040528093929190818152602001838380828437600081840152601f19601f820116905080830192505050505050509192919290505050611991565b604051808215151515815260200191505060405180910390f35b600080600090505b600480549050811015610c19578273ffffffffffffffffffffffffffffffffffffffff16600482815481101515610bbb57fe5b9060005260206000200160009054906101000a900473ffffffffffffffffffffffffffffffffffffffff1673ffffffffffffffffffffffffffffffffffffffff161415610c0c576001915050610c1f565b8080600101915050610b88565b50600090505b919050565b6000809054906101000a900473ffffffffffffffffffffffffffffffffffffffff1673ffffffffffffffffffffffffffffffffffffffff163373ffffffffffffffffffffffffffffffffffffffff16141515610c7f57600080fd5b600060149054906101000a900460ff16151515610c9b57600080fd5b674563918244f4000060035410151515610cb457600080fd5b6000610cbe611b1c565b90506008600082815260200190815260200160002060000160009054906101000a900473ffffffffffffffffffffffffffffffffffffffff1673ffffffffffffffffffffffffffffffffffffffff166108fc6003549081150290604051600060405180830381858888f19350505050158015610d3e573d6000803e3d6000fd5b5060006003819055506000600281905550610d57611b36565b5050565b600481815481101515610d6a57fe5b906000526020600020016000915054906101000a900473ffffffffffffffffffffffffffffffffffffffff1681565b60035481565b600560003373ffffffffffffffffffffffffffffffffffffffff1673ffffffffffffffffffffffffffffffffffffffff16815260200190815260200160002060020160009054906101000a900460ff161515610dfa57600080fd5b600060149054906101000a900460ff16151515610e1657600080fd5b60004290503360066000600154815260200190815260200160002060000160006101000a81548173ffffffffffffffffffffffffffffffffffffffff021916908373ffffffffffffffffffffffffffffffffffffffff160217905550836006600060015481526020019081526020016000206001019080519060200190610e9e929190611cc3565b50826006600060015481526020019081526020016000206002019080519060200190610ecb929190611cc3565b508060066000600154815260200190815260200160002060030181905550816007600060015481526020019081526020016000206000019080519060200190610f15929190611cc3565b5034600360008282540192505081905550600560003373ffffffffffffffffffffffffffffffffffffffff1673ffffffffffffffffffffffffffffffffffffffff1681526020019081526020016000206003016000815480929190600101919050555060016000815480929190600101919050555050505050565b60015481565b60608060006060600560008673ffffffffffffffffffffffffffffffffffffffff1673ffffffffffffffffffffffffffffffffffffffff1681526020019081526020016000206000018054600181600116156101000203166002900480601f0160208091040260200160405190810160405280929190818152602001828054600181600116156101000203166002900480156110735780601f1061104857610100808354040283529160200191611073565b820191906000526020600020905b81548152906001019060200180831161105657829003601f168201915b505050505090506060600560008773ffffffffffffffffffffffffffffffffffffffff1673ffffffffffffffffffffffffffffffffffffffff1681526020019081526020016000206001018054600181600116156101000203166002900480601f0160208091040260200160405190810160405280929190818152602001828054600181600116156101000203166002900480156111525780601f1061112757610100808354040283529160200191611152565b820191906000526020600020905b81548152906001019060200180831161113557829003601f168201915b505050505090506000600560008873ffffffffffffffffffffffffffffffffffffffff1673ffffffffffffffffffffffffffffffffffffffff1681526020019081526020016000206003015490508282829550955095505050509193909250565b6000806000600560008573ffffffffffffffffffffffffffffffffffffffff1673ffffffffffffffffffffffffffffffffffffffff1681526020019081526020016000206003015490506000600560008673ffffffffffffffffffffffffffffffffffffffff1673ffffffffffffffffffffffffffffffffffffffff16815260200190815260200160002060040160009054906101000a900460ff1690508181935093505050915091565b60086020528060005260406000206000915090508060000160009054906101000a900473ffffffffffffffffffffffffffffffffffffffff1690806001018054600181600116156101000203166002900480601f0160208091040260200160405190810160405280929190818152602001828054600181600116156101000203166002900480156113305780601f1061130557610100808354040283529160200191611330565b820191906000526020600020905b81548152906001019060200180831161131357829003601f168201915b505050505090806002018054600181600116156101000203166002900480601f0160208091040260200160405190810160405280929190818152602001828054600181600116156101000203166002900480156113ce5780601f106113a3576101008083540402835291602001916113ce565b820191906000526020600020905b8154815290600101906020018083116113b157829003601f168201915b5050505050905083565b600060149054906101000a900460ff1681565b6007602052806000526040600020600091509050806000018054600181600116156101000203166002900480601f0160208091040260200160405190810160405280929190818152602001828054600181600116156101000203166002900480156114975780601f1061146c57610100808354040283529160200191611497565b820191906000526020600020905b81548152906001019060200180831161147a57829003601f168201915b5050505050905081565b60066020528060005260406000206000915090508060000160009054906101000a900473ffffffffffffffffffffffffffffffffffffffff1690806001018054600181600116156101000203166002900480601f0160208091040260200160405190810160405280929190818152602001828054600181600116156101000203166002900480156115735780601f1061154857610100808354040283529160200191611573565b820191906000526020600020905b81548152906001019060200180831161155657829003601f168201915b505050505090806002018054600181600116156101000203166002900480601f0160208091040260200160405190810160405280929190818152602001828054600181600116156101000203166002900480156116115780601f106115e657610100808354040283529160200191611611565b820191906000526020600020905b8154815290600101906020018083116115f457829003601f168201915b5050505050908060030154908060040160009054906101000a900460ff16905085565b600560003373ffffffffffffffffffffffffffffffffffffffff1673ffffffffffffffffffffffffffffffffffffffff16815260200190815260200160002060020160009054906101000a900460ff16151561168f57600080fd5b600060149054906101000a900460ff161515156116ab57600080fd5b600560003373ffffffffffffffffffffffffffffffffffffffff1673ffffffffffffffffffffffffffffffffffffffff16815260200190815260200160002060040160009054906101000a900460ff1615151561170757600080fd5b6001600560003373ffffffffffffffffffffffffffffffffffffffff1673ffffffffffffffffffffffffffffffffffffffff168152602001908152602001600020600301541015151561175957600080fd5b3360086000600254815260200190815260200160002060000160006101000a81548173ffffffffffffffffffffffffffffffffffffffff021916908373ffffffffffffffffffffffffffffffffffffffff160217905550600560003373ffffffffffffffffffffffffffffffffffffffff1673ffffffffffffffffffffffffffffffffffffffff1681526020019081526020016000206000016008600060025481526020019081526020016000206001019080546001816001161561010002031660029004611829929190611d43565b50600560003373ffffffffffffffffffffffffffffffffffffffff1673ffffffffffffffffffffffffffffffffffffffff16815260200190815260200160002060010160086000600254815260200190815260200160002060020190805460018160011615610100020316600290046118a3929190611d43565b506001600560003373ffffffffffffffffffffffffffffffffffffffff1673ffffffffffffffffffffffffffffffffffffffff16815260200190815260200160002060040160006101000a81548160ff021916908315150217905550600260008154809291906001019190505550565b60025481565b6000809054906101000a900473ffffffffffffffffffffffffffffffffffffffff1673ffffffffffffffffffffffffffffffffffffffff163373ffffffffffffffffffffffffffffffffffffffff1614151561197457600080fd5b80600060146101000a81548160ff02191690831515021790555050565b600061199c33610b80565b1515611a64576001600560003373ffffffffffffffffffffffffffffffffffffffff1673ffffffffffffffffffffffffffffffffffffffff16815260200190815260200160002060020160006101000a81548160ff02191690831515021790555060043390806001815401808255809150509060018203906000526020600020016000909192909190916101000a81548173ffffffffffffffffffffffffffffffffffffffff021916908373ffffffffffffffffffffffffffffffffffffffff160217905550505b82600560003373ffffffffffffffffffffffffffffffffffffffff1673ffffffffffffffffffffffffffffffffffffffff1681526020019081526020016000206000019080519060200190611aba929190611cc3565b5081600560003373ffffffffffffffffffffffffffffffffffffffff1673ffffffffffffffffffffffffffffffffffffffff1681526020019081526020016000206001019080519060200190611b11929190611cc3565b506001905092915050565b60008060025442811515611b2c57fe5b0690508091505090565b60008060009054906101000a900473ffffffffffffffffffffffffffffffffffffffff1673ffffffffffffffffffffffffffffffffffffffff163373ffffffffffffffffffffffffffffffffffffffff16141515611b9357600080fd5b600060149054906101000a900460ff16151515611baf57600080fd5b60008090505b600480549050811015611cbf576000600482815481101515611bd357fe5b9060005260206000200160009054906101000a900473ffffffffffffffffffffffffffffffffffffffff169050600560008273ffffffffffffffffffffffffffffffffffffffff1673ffffffffffffffffffffffffffffffffffffffff16815260200190815260200160002060040160009054906101000a900460ff1615611cb1576000600560008373ffffffffffffffffffffffffffffffffffffffff1673ffffffffffffffffffffffffffffffffffffffff16815260200190815260200160002060040160006101000a81548160ff0219169083151502179055505b508080600101915050611bb5565b5090565b828054600181600116156101000203166002900490600052602060002090601f016020900481019282601f10611d0457805160ff1916838001178555611d32565b82800160010185558215611d32579182015b82811115611d31578251825591602001919060010190611d16565b5b509050611d3f9190611dca565b5090565b828054600181600116156101000203166002900490600052602060002090601f016020900481019282601f10611d7c5780548555611db9565b82800160010185558215611db957600052602060002091601f016020900482015b82811115611db8578254825591600101919060010190611d9d565b5b509050611dc69190611dca565b5090565b611dec91905b80821115611de8576000816000905550600101611dd0565b5090565b9056fea165627a7a7230582029f8753b972314c337f8948fc282eb81f74c02883e534e5dbc03d8e56921d61a0029",
  "source": "pragma solidity ^0.5.0;\n\ncontract DiaryApp {\n    address owner; // \n    bool public stopped; // true\n    uint256 public numItems; // \n    uint256 public total_entry; // eth\n    uint256 public bonus_eth; // ether\n\n    // \n    constructor() public {\n        owner = msg.sender; // \n        stopped = false;\n        numItems = 0;\n        total_entry = 0;\n        bonus_eth = 0;\n    }\n\n    // \n    modifier onlyOwner {\n        require(msg.sender == owner);\n        _;\n    }\n\n    // Eth\n    modifier onlyUser {\n        require(accounts[msg.sender].resistered);\n        _;\n    }\n\n    // ===========================\n    // \n    // ===========================\n\n    // \n    struct account {\n        string name; //\n        string email; //Email\n        bool resistered; //:false, :true\n        uint256 numWrite; //\n        bool entryed; // false, true\n    }\n\n    address[] public users; // \n\n    mapping(address => account) accounts;\n\n    // \n    function registerAccount(string memory _name, string memory _email)\n        public\n        returns (bool)\n    {\n        //\n        if (!isUserExist(msg.sender)) {\n            accounts[msg.sender].resistered = true;\n            users.push(msg.sender);\n        }\n        accounts[msg.sender].name = _name;\n        accounts[msg.sender].email = _email;\n        return true;\n    }\n\n    // \n    function isUserExist(address user) public view returns (bool) {\n        for (uint256 i = 0; i < users.length; i++) {\n            if (users[i] == user) {\n                return true;\n            }\n        }\n        return false;\n    }\n\n    // \n    function viewAccount(address user)\n        public\n        view\n        returns (\n            string memory,\n            string memory,\n            uint256\n        )\n    {\n        string memory _name = accounts[user].name;\n        string memory _email = accounts[user].email;\n        uint256 _numWrite = accounts[user].numWrite;\n\n        return (_name, _email, _numWrite);\n    }\n\n    // \n    struct item {\n        address payable sellerAddr; // Eth\n        string title; // \n        string text; // \n        uint256 time; //\n        bool stopSell; // false:, true:\n    }\n    mapping(uint256 => item) public items;\n\n    // \n    // solidity12.\n    struct image {\n        string googleDocID; // googleid\n    }\n    mapping(uint256 => image) public images;\n\n    // \n    function submit(\n        string memory _title,\n        string memory _text,\n        string memory _googleDocID\n    ) public payable onlyUser isStopped {\n        uint256 _time = block.timestamp;\n\n        items[numItems].sellerAddr = msg.sender; // Eth\n        items[numItems].title = _title; // \n        items[numItems].text = _text; // \n        items[numItems].time = _time; // \n        images[numItems].googleDocID = _googleDocID; // googleid\n        bonus_eth += msg.value;\n        accounts[msg.sender].numWrite++; // \n        numItems++; // \n    }\n\n    // ================\n    // Eth\n    // ================\n\n    // eth\n    struct get_eth_account {\n        address payable entryAddr; // Eth\n        string name; //\n        string email; //Email\n    }\n\n    mapping(uint256 => get_eth_account) public get_eth_accounts;\n\n    // eth_get\n    function entry_get_eth() public onlyUser isStopped {\n        // \n        require(!accounts[msg.sender].entryed);\n        require(accounts[msg.sender].numWrite >= 1); // 1\n\n        get_eth_accounts[total_entry].entryAddr = msg.sender; //\n        get_eth_accounts[total_entry].name = accounts[msg.sender].name; //\n        get_eth_accounts[total_entry].email = accounts[msg.sender].email; //\n        accounts[msg.sender].entryed = true;\n        total_entry++;\n    }\n\n    // \n    function view_eth_acc(address user) public view returns (uint256, bool) {\n        uint256 _entry_condition1 = accounts[user].numWrite;\n        bool _entry_condition2 = accounts[user].entryed;\n\n        return (_entry_condition1, _entry_condition2);\n    }\n\n    // \n    function random() internal view returns (uint256) {\n        uint256 randnum = block.timestamp % total_entry;\n\n        return uint256(randnum);\n    }\n\n    // eth\n    function get_eth() public payable onlyOwner isStopped {\n        require(bonus_eth >= 5 ether);\n\n        uint256 idx = random();\n        get_eth_accounts[idx].entryAddr.transfer(bonus_eth);\n        bonus_eth = 0;\n        total_entry = 0;\n        entry_false();\n    }\n\n    // false\n    function entry_false() internal onlyOwner isStopped returns (uint256) {\n        for (uint256 i = 0; i < users.length; i++) {\n            address index = users[i];\n            if (accounts[index].entryed) {\n                accounts[index].entryed = false;\n            }\n        }\n    }\n\n    // ================\n    // \n    // ================\n\n    // Circuit Breaker\n    modifier isStopped {\n        require(!stopped);\n        _;\n    }\n\n    // Circuit Breaker\n    function toggleCircuit(bool _stopped) public onlyOwner {\n        stopped = _stopped;\n    }\n\n    // \n    // \n    // function kill() public onlyOwner {\n    //     selfdestruct(owner);\n    // }\n}\n",
  "sourcePath": "/Users/sho11hei12/react-dapps/DiaryApp/dapps-deploy/contracts/Diary.sol",
  "compiler": {
    "name": "solc",
    "version": "0.5.2+commit.1df8f40c.Emscripten.clang"
  },
  "schemaVersion": "3.2.3",
  "updatedAt": "2020-11-10T12:40:04.074Z",
  "networkType": "ethereum",
  "devdoc": {
    "methods": {}
  },
  "userdoc": {
    "methods": {}
  }
}