{
  "contractName": "DiaryApp",
  "abi": [
    {
      "constant": true,
      "inputs": [
        {
          "name": "",
          "type": "uint256"
        }
      ],
      "name": "users",
      "outputs": [
        {
          "name": "",
          "type": "address"
        }
      ],
      "payable": false,
      "stateMutability": "view",
      "type": "function"
    },
    {
      "constant": true,
      "inputs": [],
      "name": "bonus_eth",
      "outputs": [
        {
          "name": "",
          "type": "uint256"
        }
      ],
      "payable": false,
      "stateMutability": "view",
      "type": "function"
    },
    {
      "constant": true,
      "inputs": [],
      "name": "numItems",
      "outputs": [
        {
          "name": "",
          "type": "uint256"
        }
      ],
      "payable": false,
      "stateMutability": "view",
      "type": "function"
    },
    {
      "constant": true,
      "inputs": [
        {
          "name": "",
          "type": "uint256"
        }
      ],
      "name": "get_eth_accounts",
      "outputs": [
        {
          "name": "entryAddr",
          "type": "address"
        },
        {
          "name": "name",
          "type": "string"
        },
        {
          "name": "email",
          "type": "string"
        }
      ],
      "payable": false,
      "stateMutability": "view",
      "type": "function"
    },
    {
      "constant": true,
      "inputs": [],
      "name": "stopped",
      "outputs": [
        {
          "name": "",
          "type": "bool"
        }
      ],
      "payable": false,
      "stateMutability": "view",
      "type": "function"
    },
    {
      "constant": true,
      "inputs": [
        {
          "name": "",
          "type": "uint256"
        }
      ],
      "name": "images",
      "outputs": [
        {
          "name": "googleDocID",
          "type": "string"
        }
      ],
      "payable": false,
      "stateMutability": "view",
      "type": "function"
    },
    {
      "constant": true,
      "inputs": [
        {
          "name": "",
          "type": "uint256"
        }
      ],
      "name": "items",
      "outputs": [
        {
          "name": "sellerAddr",
          "type": "address"
        },
        {
          "name": "title",
          "type": "string"
        },
        {
          "name": "text",
          "type": "string"
        },
        {
          "name": "time",
          "type": "uint256"
        },
        {
          "name": "favorite",
          "type": "bool"
        },
        {
          "name": "stopSell",
          "type": "bool"
        }
      ],
      "payable": false,
      "stateMutability": "view",
      "type": "function"
    },
    {
      "constant": true,
      "inputs": [],
      "name": "total_entry",
      "outputs": [
        {
          "name": "",
          "type": "uint256"
        }
      ],
      "payable": false,
      "stateMutability": "view",
      "type": "function"
    },
    {
      "inputs": [],
      "payable": false,
      "stateMutability": "nonpayable",
      "type": "constructor"
    },
    {
      "constant": false,
      "inputs": [
        {
          "name": "_name",
          "type": "string"
        },
        {
          "name": "_email",
          "type": "string"
        }
      ],
      "name": "registerAccount",
      "outputs": [
        {
          "name": "",
          "type": "bool"
        }
      ],
      "payable": false,
      "stateMutability": "nonpayable",
      "type": "function"
    },
    {
      "constant": true,
      "inputs": [
        {
          "name": "user",
          "type": "address"
        }
      ],
      "name": "isUserExist",
      "outputs": [
        {
          "name": "",
          "type": "bool"
        }
      ],
      "payable": false,
      "stateMutability": "view",
      "type": "function"
    },
    {
      "constant": true,
      "inputs": [
        {
          "name": "user",
          "type": "address"
        }
      ],
      "name": "viewAccount",
      "outputs": [
        {
          "name": "",
          "type": "string"
        },
        {
          "name": "",
          "type": "string"
        },
        {
          "name": "",
          "type": "uint256"
        }
      ],
      "payable": false,
      "stateMutability": "view",
      "type": "function"
    },
    {
      "constant": false,
      "inputs": [
        {
          "name": "_title",
          "type": "string"
        },
        {
          "name": "_text",
          "type": "string"
        },
        {
          "name": "_googleDocID",
          "type": "string"
        }
      ],
      "name": "submit",
      "outputs": [],
      "payable": true,
      "stateMutability": "payable",
      "type": "function"
    },
    {
      "constant": false,
      "inputs": [
        {
          "name": "_num",
          "type": "uint256"
        }
      ],
      "name": "favo_true",
      "outputs": [],
      "payable": false,
      "stateMutability": "nonpayable",
      "type": "function"
    },
    {
      "constant": false,
      "inputs": [
        {
          "name": "_num",
          "type": "uint256"
        }
      ],
      "name": "favo_false",
      "outputs": [],
      "payable": false,
      "stateMutability": "nonpayable",
      "type": "function"
    },
    {
      "constant": false,
      "inputs": [],
      "name": "entry_get_eth",
      "outputs": [],
      "payable": false,
      "stateMutability": "nonpayable",
      "type": "function"
    },
    {
      "constant": true,
      "inputs": [
        {
          "name": "user",
          "type": "address"
        }
      ],
      "name": "view_eth_acc",
      "outputs": [
        {
          "name": "",
          "type": "uint256"
        },
        {
          "name": "",
          "type": "bool"
        }
      ],
      "payable": false,
      "stateMutability": "view",
      "type": "function"
    },
    {
      "constant": false,
      "inputs": [],
      "name": "get_eth",
      "outputs": [],
      "payable": true,
      "stateMutability": "payable",
      "type": "function"
    },
    {
      "constant": false,
      "inputs": [
        {
          "name": "_stopped",
          "type": "bool"
        }
      ],
      "name": "toggleCircuit",
      "outputs": [],
      "payable": false,
      "stateMutability": "nonpayable",
      "type": "function"
    }
  ],
  "bytecode": "0x608060405234801561001057600080fd5b50336000806101000a81548173ffffffffffffffffffffffffffffffffffffffff021916908373ffffffffffffffffffffffffffffffffffffffff16021790555060008060146101000a81548160ff021916908315150217905550600060018190555060006002819055506000600381905550612017806100926000396000f3fe608060405260043610610126576000357c01000000000000000000000000000000000000000000000000000000009004806375f12b21116100b2578063d83cc37311610081578063d83cc373146109e6578063d87ad17314610a21578063db6b59d714610a38578063dd6c2c5914610a63578063ddc7b6a714610aa057610126565b806375f12b21146107585780638485648214610787578063bfb231d21461083b578063c385ef2d146109ab57610126565b806346fb5ac6116100f957806346fb5ac6146102445780635bfadae41461042d5780636b55f4a51461045857806370f980311461059557806372ca7bfa1461060557610126565b80630255fa1e1461012b57806322d3421214610194578063365b98b21461019e578063439aed5b14610219575b600080fd5b34801561013757600080fd5b5061017a6004803603602081101561014e57600080fd5b81019080803573ffffffffffffffffffffffffffffffffffffffff169060200190929190505050610c17565b604051808215151515815260200191505060405180910390f35b61019c610cbb565b005b3480156101aa57600080fd5b506101d7600480360360208110156101c157600080fd5b8101908080359060200190929190505050610df2565b604051808273ffffffffffffffffffffffffffffffffffffffff1673ffffffffffffffffffffffffffffffffffffffff16815260200191505060405180910390f35b34801561022557600080fd5b5061022e610e30565b6040518082815260200191505060405180910390f35b61042b6004803603606081101561025a57600080fd5b810190808035906020019064010000000081111561027757600080fd5b82018360208201111561028957600080fd5b803590602001918460018302840111640100000000831117156102ab57600080fd5b91908080601f016020809104026020016040519081016040528093929190818152602001838380828437600081840152601f19601f8201169050808301925050505050505091929192908035906020019064010000000081111561030e57600080fd5b82018360208201111561032057600080fd5b8035906020019184600183028401116401000000008311171561034257600080fd5b91908080601f016020809104026020016040519081016040528093929190818152602001838380828437600081840152601f19601f820116905080830192505050505050509192919290803590602001906401000000008111156103a557600080fd5b8201836020820111156103b757600080fd5b803590602001918460018302840111640100000000831117156103d957600080fd5b91908080601f016020809104026020016040519081016040528093929190818152602001838380828437600081840152601f19601f820116905080830192505050505050509192919290505050610e36565b005b34801561043957600080fd5b50610442611027565b6040518082815260200191505060405180910390f35b34801561046457600080fd5b506104a76004803603602081101561047b57600080fd5b81019080803573ffffffffffffffffffffffffffffffffffffffff16906020019092919050505061102d565b604051808060200180602001848152602001838103835286818151815260200191508051906020019080838360005b838110156104f15780820151818401526020810190506104d6565b50505050905090810190601f16801561051e5780820380516001836020036101000a031916815260200191505b50838103825285818151815260200191508051906020019080838360005b8381101561055757808201518184015260208101905061053c565b50505050905090810190601f1680156105845780820380516001836020036101000a031916815260200191505b509550505050505060405180910390f35b3480156105a157600080fd5b506105e4600480360360208110156105b857600080fd5b81019080803573ffffffffffffffffffffffffffffffffffffffff16906020019092919050505061124a565b60405180838152602001821515151581526020019250505060405180910390f35b34801561061157600080fd5b5061063e6004803603602081101561062857600080fd5b81019080803590602001909291905050506112f5565b604051808473ffffffffffffffffffffffffffffffffffffffff1673ffffffffffffffffffffffffffffffffffffffff1681526020018060200180602001838103835285818151815260200191508051906020019080838360005b838110156106b4578082015181840152602081019050610699565b50505050905090810190601f1680156106e15780820380516001836020036101000a031916815260200191505b50838103825284818151815260200191508051906020019080838360005b8381101561071a5780820151818401526020810190506106ff565b50505050905090810190601f1680156107475780820380516001836020036101000a031916815260200191505b509550505050505060405180910390f35b34801561076457600080fd5b5061076d61146f565b604051808215151515815260200191505060405180910390f35b34801561079357600080fd5b506107c0600480360360208110156107aa57600080fd5b8101908080359060200190929190505050611482565b6040518080602001828103825283818151815260200191508051906020019080838360005b838110156108005780820151818401526020810190506107e5565b50505050905090810190601f16801561082d5780820380516001836020036101000a031916815260200191505b509250505060405180910390f35b34801561084757600080fd5b506108746004803603602081101561085e57600080fd5b8101908080359060200190929190505050611538565b604051808773ffffffffffffffffffffffffffffffffffffffff1673ffffffffffffffffffffffffffffffffffffffff16815260200180602001806020018681526020018515151515815260200184151515158152602001838103835288818151815260200191508051906020019080838360005b838110156109045780820151818401526020810190506108e9565b50505050905090810190601f1680156109315780820380516001836020036101000a031916815260200191505b50838103825287818151815260200191508051906020019080838360005b8381101561096a57808201518184015260208101905061094f565b50505050905090810190601f1680156109975780820380516001836020036101000a031916815260200191505b509850505050505050505060405180910390f35b3480156109b757600080fd5b506109e4600480360360208110156109ce57600080fd5b81019080803590602001909291905050506116de565b005b3480156109f257600080fd5b50610a1f60048036036020811015610a0957600080fd5b8101908080359060200190929190505050611787565b005b348015610a2d57600080fd5b50610a36611830565b005b348015610a4457600080fd5b50610a4d611b0f565b6040518082815260200191505060405180910390f35b348015610a6f57600080fd5b50610a9e60048036036020811015610a8657600080fd5b81019080803515159060200190929190505050611b15565b005b348015610aac57600080fd5b50610bfd60048036036040811015610ac357600080fd5b8101908080359060200190640100000000811115610ae057600080fd5b820183602082011115610af257600080fd5b80359060200191846001830284011164010000000083111715610b1457600080fd5b91908080601f016020809104026020016040519081016040528093929190818152602001838380828437600081840152601f19601f82011690508083019250505050505050919291929080359060200190640100000000811115610b7757600080fd5b820183602082011115610b8957600080fd5b80359060200191846001830284011164010000000083111715610bab57600080fd5b91908080601f016020809104026020016040519081016040528093929190818152602001838380828437600081840152601f19601f820116905080830192505050505050509192919290505050611b8d565b604051808215151515815260200191505060405180910390f35b600080600090505b600480549050811015610cb0578273ffffffffffffffffffffffffffffffffffffffff16600482815481101515610c5257fe5b9060005260206000200160009054906101000a900473ffffffffffffffffffffffffffffffffffffffff1673ffffffffffffffffffffffffffffffffffffffff161415610ca3576001915050610cb6565b8080600101915050610c1f565b50600090505b919050565b6000809054906101000a900473ffffffffffffffffffffffffffffffffffffffff1673ffffffffffffffffffffffffffffffffffffffff163373ffffffffffffffffffffffffffffffffffffffff16141515610d1657600080fd5b600060149054906101000a900460ff16151515610d3257600080fd5b670de0b6b3a764000060035410151515610d4b57600080fd5b6000610d55611d18565b90506008600082815260200190815260200160002060000160009054906101000a900473ffffffffffffffffffffffffffffffffffffffff1673ffffffffffffffffffffffffffffffffffffffff166108fc6003549081150290604051600060405180830381858888f19350505050158015610dd5573d6000803e3d6000fd5b5060006003819055506000600281905550610dee611d32565b5050565b600481815481101515610e0157fe5b906000526020600020016000915054906101000a900473ffffffffffffffffffffffffffffffffffffffff1681565b60035481565b600560003373ffffffffffffffffffffffffffffffffffffffff1673ffffffffffffffffffffffffffffffffffffffff16815260200190815260200160002060020160009054906101000a900460ff161515610e9157600080fd5b600060149054906101000a900460ff16151515610ead57600080fd5b60004290503360066000600154815260200190815260200160002060000160006101000a81548173ffffffffffffffffffffffffffffffffffffffff021916908373ffffffffffffffffffffffffffffffffffffffff160217905550836006600060015481526020019081526020016000206001019080519060200190610f35929190611ebf565b50826006600060015481526020019081526020016000206002019080519060200190610f62929190611ebf565b508060066000600154815260200190815260200160002060030181905550816007600060015481526020019081526020016000206000019080519060200190610fac929190611ebf565b5034600360008282540192505081905550600560003373ffffffffffffffffffffffffffffffffffffffff1673ffffffffffffffffffffffffffffffffffffffff1681526020019081526020016000206003016000815480929190600101919050555060016000815480929190600101919050555050505050565b60015481565b60608060006060600560008673ffffffffffffffffffffffffffffffffffffffff1673ffffffffffffffffffffffffffffffffffffffff1681526020019081526020016000206000018054600181600116156101000203166002900480601f01602080910402602001604051908101604052809291908181526020018280546001816001161561010002031660029004801561110a5780601f106110df5761010080835404028352916020019161110a565b820191906000526020600020905b8154815290600101906020018083116110ed57829003601f168201915b505050505090506060600560008773ffffffffffffffffffffffffffffffffffffffff1673ffffffffffffffffffffffffffffffffffffffff1681526020019081526020016000206001018054600181600116156101000203166002900480601f0160208091040260200160405190810160405280929190818152602001828054600181600116156101000203166002900480156111e95780601f106111be576101008083540402835291602001916111e9565b820191906000526020600020905b8154815290600101906020018083116111cc57829003601f168201915b505050505090506000600560008873ffffffffffffffffffffffffffffffffffffffff1673ffffffffffffffffffffffffffffffffffffffff1681526020019081526020016000206003015490508282829550955095505050509193909250565b6000806000600560008573ffffffffffffffffffffffffffffffffffffffff1673ffffffffffffffffffffffffffffffffffffffff1681526020019081526020016000206003015490506000600560008673ffffffffffffffffffffffffffffffffffffffff1673ffffffffffffffffffffffffffffffffffffffff16815260200190815260200160002060040160009054906101000a900460ff1690508181935093505050915091565b60086020528060005260406000206000915090508060000160009054906101000a900473ffffffffffffffffffffffffffffffffffffffff1690806001018054600181600116156101000203166002900480601f0160208091040260200160405190810160405280929190818152602001828054600181600116156101000203166002900480156113c75780601f1061139c576101008083540402835291602001916113c7565b820191906000526020600020905b8154815290600101906020018083116113aa57829003601f168201915b505050505090806002018054600181600116156101000203166002900480601f0160208091040260200160405190810160405280929190818152602001828054600181600116156101000203166002900480156114655780601f1061143a57610100808354040283529160200191611465565b820191906000526020600020905b81548152906001019060200180831161144857829003601f168201915b5050505050905083565b600060149054906101000a900460ff1681565b6007602052806000526040600020600091509050806000018054600181600116156101000203166002900480601f01602080910402602001604051908101604052809291908181526020018280546001816001161561010002031660029004801561152e5780601f106115035761010080835404028352916020019161152e565b820191906000526020600020905b81548152906001019060200180831161151157829003601f168201915b5050505050905081565b60066020528060005260406000206000915090508060000160009054906101000a900473ffffffffffffffffffffffffffffffffffffffff1690806001018054600181600116156101000203166002900480601f01602080910402602001604051908101604052809291908181526020018280546001816001161561010002031660029004801561160a5780601f106115df5761010080835404028352916020019161160a565b820191906000526020600020905b8154815290600101906020018083116115ed57829003601f168201915b505050505090806002018054600181600116156101000203166002900480601f0160208091040260200160405190810160405280929190818152602001828054600181600116156101000203166002900480156116a85780601f1061167d576101008083540402835291602001916116a8565b820191906000526020600020905b81548152906001019060200180831161168b57829003601f168201915b5050505050908060030154908060040160009054906101000a900460ff16908060040160019054906101000a900460ff16905086565b600560003373ffffffffffffffffffffffffffffffffffffffff1673ffffffffffffffffffffffffffffffffffffffff16815260200190815260200160002060020160009054906101000a900460ff16151561173957600080fd5b600060149054906101000a900460ff1615151561175557600080fd5b60016006600083815260200190815260200160002060040160006101000a81548160ff02191690831515021790555050565b600560003373ffffffffffffffffffffffffffffffffffffffff1673ffffffffffffffffffffffffffffffffffffffff16815260200190815260200160002060020160009054906101000a900460ff1615156117e257600080fd5b600060149054906101000a900460ff161515156117fe57600080fd5b60006006600083815260200190815260200160002060040160006101000a81548160ff02191690831515021790555050565b600560003373ffffffffffffffffffffffffffffffffffffffff1673ffffffffffffffffffffffffffffffffffffffff16815260200190815260200160002060020160009054906101000a900460ff16151561188b57600080fd5b600060149054906101000a900460ff161515156118a757600080fd5b600560003373ffffffffffffffffffffffffffffffffffffffff1673ffffffffffffffffffffffffffffffffffffffff16815260200190815260200160002060040160009054906101000a900460ff1615151561190357600080fd5b6001600560003373ffffffffffffffffffffffffffffffffffffffff1673ffffffffffffffffffffffffffffffffffffffff168152602001908152602001600020600301541015151561195557600080fd5b3360086000600254815260200190815260200160002060000160006101000a81548173ffffffffffffffffffffffffffffffffffffffff021916908373ffffffffffffffffffffffffffffffffffffffff160217905550600560003373ffffffffffffffffffffffffffffffffffffffff1673ffffffffffffffffffffffffffffffffffffffff1681526020019081526020016000206000016008600060025481526020019081526020016000206001019080546001816001161561010002031660029004611a25929190611f3f565b50600560003373ffffffffffffffffffffffffffffffffffffffff1673ffffffffffffffffffffffffffffffffffffffff1681526020019081526020016000206001016008600060025481526020019081526020016000206002019080546001816001161561010002031660029004611a9f929190611f3f565b506001600560003373ffffffffffffffffffffffffffffffffffffffff1673ffffffffffffffffffffffffffffffffffffffff16815260200190815260200160002060040160006101000a81548160ff021916908315150217905550600260008154809291906001019190505550565b60025481565b6000809054906101000a900473ffffffffffffffffffffffffffffffffffffffff1673ffffffffffffffffffffffffffffffffffffffff163373ffffffffffffffffffffffffffffffffffffffff16141515611b7057600080fd5b80600060146101000a81548160ff02191690831515021790555050565b6000611b9833610c17565b1515611c60576001600560003373ffffffffffffffffffffffffffffffffffffffff1673ffffffffffffffffffffffffffffffffffffffff16815260200190815260200160002060020160006101000a81548160ff02191690831515021790555060043390806001815401808255809150509060018203906000526020600020016000909192909190916101000a81548173ffffffffffffffffffffffffffffffffffffffff021916908373ffffffffffffffffffffffffffffffffffffffff160217905550505b82600560003373ffffffffffffffffffffffffffffffffffffffff1673ffffffffffffffffffffffffffffffffffffffff1681526020019081526020016000206000019080519060200190611cb6929190611ebf565b5081600560003373ffffffffffffffffffffffffffffffffffffffff1673ffffffffffffffffffffffffffffffffffffffff1681526020019081526020016000206001019080519060200190611d0d929190611ebf565b506001905092915050565b60008060025442811515611d2857fe5b0690508091505090565b60008060009054906101000a900473ffffffffffffffffffffffffffffffffffffffff1673ffffffffffffffffffffffffffffffffffffffff163373ffffffffffffffffffffffffffffffffffffffff16141515611d8f57600080fd5b600060149054906101000a900460ff16151515611dab57600080fd5b60008090505b600480549050811015611ebb576000600482815481101515611dcf57fe5b9060005260206000200160009054906101000a900473ffffffffffffffffffffffffffffffffffffffff169050600560008273ffffffffffffffffffffffffffffffffffffffff1673ffffffffffffffffffffffffffffffffffffffff16815260200190815260200160002060040160009054906101000a900460ff1615611ead576000600560008373ffffffffffffffffffffffffffffffffffffffff1673ffffffffffffffffffffffffffffffffffffffff16815260200190815260200160002060040160006101000a81548160ff0219169083151502179055505b508080600101915050611db1565b5090565b828054600181600116156101000203166002900490600052602060002090601f016020900481019282601f10611f0057805160ff1916838001178555611f2e565b82800160010185558215611f2e579182015b82811115611f2d578251825591602001919060010190611f12565b5b509050611f3b9190611fc6565b5090565b828054600181600116156101000203166002900490600052602060002090601f016020900481019282601f10611f785780548555611fb5565b82800160010185558215611fb557600052602060002091601f016020900482015b82811115611fb4578254825591600101919060010190611f99565b5b509050611fc29190611fc6565b5090565b611fe891905b80821115611fe4576000816000905550600101611fcc565b5090565b9056fea165627a7a723058208b58375157036d56195c741f71d2f117b7a1cb0c9fc2b748903f8966c73ae58e0029",
  "source": "pragma solidity ^0.5.0;\n\ncontract DiaryApp {\n    address owner; // \n    bool public stopped; // true\n    uint256 public numItems; // \n    uint256 public total_entry; // eth\n    uint256 public bonus_eth; // ether\n\n    // \n    constructor() public {\n        owner = msg.sender; // \n        stopped = false;\n        numItems = 0;\n        total_entry = 0;\n        bonus_eth = 0;\n    }\n\n    // \n    modifier onlyOwner {\n        require(msg.sender == owner);\n        _;\n    }\n\n    // Eth\n    modifier onlyUser {\n        require(accounts[msg.sender].resistered);\n        _;\n    }\n\n    // ===========================\n    // \n    // ===========================\n\n    // \n    struct account {\n        string name; //\n        string email; //Email\n        bool resistered; //:false, :true\n        uint256 numWrite; //\n        bool entryed; // false, true\n    }\n\n    address[] public users; // \n\n    mapping(address => account) accounts;\n\n    // \n    function registerAccount(string memory _name, string memory _email)\n        public\n        returns (bool)\n    {\n        //\n        if (!isUserExist(msg.sender)) {\n            accounts[msg.sender].resistered = true;\n            users.push(msg.sender);\n        }\n        accounts[msg.sender].name = _name;\n        accounts[msg.sender].email = _email;\n        return true;\n    }\n\n    // \n    function isUserExist(address user) public view returns (bool) {\n        for (uint256 i = 0; i < users.length; i++) {\n            if (users[i] == user) {\n                return true;\n            }\n        }\n        return false;\n    }\n\n    // \n    function viewAccount(address user)\n        public\n        view\n        returns (\n            string memory,\n            string memory,\n            uint256\n        )\n    {\n        string memory _name = accounts[user].name;\n        string memory _email = accounts[user].email;\n        uint256 _numWrite = accounts[user].numWrite;\n\n        return (_name, _email, _numWrite);\n    }\n\n    // \n    struct item {\n        address payable sellerAddr; // Eth\n        string title; // \n        string text; // \n        uint256 time; //\n        bool favorite; // \n        bool stopSell; // false:, true:\n    }\n    mapping(uint256 => item) public items;\n\n    // \n    // solidity12.\n    struct image {\n        string googleDocID; // googleid\n    }\n    mapping(uint256 => image) public images;\n\n    // \n    function submit(\n        string memory _title,\n        string memory _text,\n        string memory _googleDocID\n    ) public payable onlyUser isStopped {\n        uint256 _time = block.timestamp;\n\n        items[numItems].sellerAddr = msg.sender; // Eth\n        items[numItems].title = _title; // \n        items[numItems].text = _text; // \n        items[numItems].time = _time; // \n        images[numItems].googleDocID = _googleDocID; // googleid\n        bonus_eth += msg.value;\n        accounts[msg.sender].numWrite++; // \n        numItems++; // \n    }\n\n    // \n    function favo_true(uint256 _num) public onlyUser isStopped {\n        items[_num].favorite = true;\n    }\n\n    // \n    function favo_false(uint256 _num) public onlyUser isStopped {\n        items[_num].favorite = false;\n    }\n\n    // ================\n    // Eth\n    // ================\n\n    // eth\n    struct get_eth_account {\n        address payable entryAddr; // Eth\n        string name; //\n        string email; //Email\n    }\n\n    mapping(uint256 => get_eth_account) public get_eth_accounts;\n\n    // eth_get\n    function entry_get_eth() public onlyUser isStopped {\n        // \n        require(!accounts[msg.sender].entryed);\n        require(accounts[msg.sender].numWrite >= 1); // 1\n\n        get_eth_accounts[total_entry].entryAddr = msg.sender; //\n        get_eth_accounts[total_entry].name = accounts[msg.sender].name; //\n        get_eth_accounts[total_entry].email = accounts[msg.sender].email; //\n        accounts[msg.sender].entryed = true;\n        total_entry++;\n    }\n\n    // \n    function view_eth_acc(address user) public view returns (uint256, bool) {\n        uint256 _entry_condition1 = accounts[user].numWrite;\n        bool _entry_condition2 = accounts[user].entryed;\n\n        return (_entry_condition1, _entry_condition2);\n    }\n\n    // \n    function random() internal view returns (uint256) {\n        uint256 randnum = block.timestamp % total_entry;\n\n        return uint256(randnum);\n    }\n\n    // eth\n    function get_eth() public payable onlyOwner isStopped {\n        require(bonus_eth >= 1 ether);\n\n        uint256 idx = random();\n        get_eth_accounts[idx].entryAddr.transfer(bonus_eth);\n        bonus_eth = 0;\n        total_entry = 0;\n        entry_false();\n    }\n\n    // false\n    function entry_false() internal onlyOwner isStopped returns (uint256) {\n        for (uint256 i = 0; i < users.length; i++) {\n            address index = users[i];\n            if (accounts[index].entryed) {\n                accounts[index].entryed = false;\n            }\n        }\n    }\n\n    // ================\n    // \n    // ================\n\n    // Circuit Breaker\n    modifier isStopped {\n        require(!stopped);\n        _;\n    }\n\n    // Circuit Breaker\n    function toggleCircuit(bool _stopped) public onlyOwner {\n        stopped = _stopped;\n    }\n\n    // \n    // \n    // function kill() public onlyOwner {\n    //     selfdestruct(owner);\n    // }\n}\n",
  "sourcePath": "/Users/sho11hei12/react-dapps/DiaryApp/dapps-deploy/contracts/Diary.sol",
  "compiler": {
    "name": "solc",
    "version": "0.5.2+commit.1df8f40c.Emscripten.clang"
  },
  "schemaVersion": "3.2.3",
  "updatedAt": "2020-11-16T05:11:15.726Z",
  "networkType": "ethereum",
  "devdoc": {
    "methods": {}
  },
  "userdoc": {
    "methods": {}
  }
}